:1005CB00D2B3D2B200000000C2B300000000C2B22E
:0105DB0022FD
:1005DC00C2B3D2B200000000D2B300000000C2B21D
:0105EC0022EC
:05062400C2B20205DC7A
:0D05FE00C2B3D2B200000000C2B2D2B322DC
:0D060B00D2B3D2B200000000C2B2C2B322CE
:10053000E4FFD2B3FED2B2EF25E0FFA2B3E4334230
:100540000700000000C2B2000000000EBE08E6C2B4
:05055000B200000000F4
:010555002283
:10049C00E4FEEF3392B30000D2B200000000C2B20F
:1004AC00EF25E0FF0EBE08EA00000000D2B3D2B286
:1004BC0000000000A2B3B39200C2B200000000A280
:0404CC0000E433FF16
:0104D0002209
:0202C400AB0786
:1002C600AF1AAE19AD18AC1778101201B0EF540181
:1002D600FFAA07EA25E0FAE51AFFE519FEAD07AC25
:1002E600061205CBEB4AFF12049CEF7002FF22AF09
:1002F6000412049CEF7002FF22AF0512049CEF70FB
:1003060002FF221205CBEB4401FF12049CEF7002A0
:10031600FF22E4FDE51E14FFEDC39F5018120530C1
:10032600AB1BAA1CA91D8D82758300EF12013F121B
:1003360005FE0D80DF120530E51E7C0024FFF582E8
:10034600EC34FFF583AB1BAA1CA91DEF12013F126B
:05035600060B1205DC9E
:01035B00227F
:10045C0000011011B0D7C8D5D2C0C9BDBEA1A3AC84
:10046C00000000BBC6BAD3C8EBBAA3C1F7A1A30066
:10047C000000D3FBC7EEC7A7C0EFC4BFA3AC0000FE
:10048C0000B8FCC9CFD2BBB2E3C2A5A1A300000047
:0601C3008B0A8A0B890C77
:1001C90078127C007D007BFF7A04795C7E007F04D5
:1001D9001200D3AB0AAA0BA90C1200F92460FF90F4
:1001E90000011201122460FDEF1475F05EA4FFED09
:1001F90024FFFDE434FFCD2FFFED35F0FEE4FCFDD7
:100209007B20FAF9F81201618F108E0F8D0E8C0D7B
:1002190078111201B0AB07E510F510E50FF50FE500
:100229000E5401F50EE4F50DEB701B85101A850FC0
:1002390019850E18850D17F51B751C00751D21757F
:100249001E207FA0801A85101A850F19850E188522
:100259000D17751B00751C00751D21751E207FA4C7
:100269001202C4E4F9E4FDE4F511FC741229F8E67C
:10027900FFEC25E02F2421F8E6FB7A0074807E004C
:10028900A805088006CEA2E713CE13D8F8FFEE5AC8
:10029900FEEF5B4E600D7401A804088002C333D8D9
:1002A900FC42110CBC08C4E975F008A42D2441F8DE
:0A02B900A6110DBD08B109B904AB90
:0102C3002218
:1003E900120599120624E4F508E4F509E50875F003
:1003F9000FA42460F9740435F0FA7BFF1205B6C323
:10040900E5099FEE6480F8748098503DE50875F021
:100419000FA42460F9740435F0FA7BFFE92509F982
:10042900E43AFA1201C3E50825E0FFE509C313C45C
:1004390054F02413FD750D00750E00750F417B01F5
:100449001204D10509050980A30508E508C3940428
:020459004097CA
:01045B00227E
:1005ED007580FFD2A100C2A0D2A200C2A2E58033C5
:0105FD0022DB
:09057B00C2A3D2A4E51524B8FFC7
:100584001205ED40FB7580FFC2A100C2A08F80D28E
:05059400A200C2A2223A
:10055600AB18AA19A91A851B82758300120112FF0E
:100566001205ED40FB7580FFC2A100D2A08F80D29C
:05057600A200C2A22258
:10059900D2A3D2A47F381205847F0F1205847F016C
:0D05A9001205847F061205847FC0020584C0
:06035C008F158D168B17B2
:10036200E516C394405066D2A3C2A412057FE516D7
:100372002440FF120584E5162517FFE433FEC3EF80
:100382009440EE648094805011E4F51BE51BC39504
:10039200175053120556051B80F2E4F51BC3744037
:1003A2009516FFE51BC39F5007120556051B80EDEE
:1003B20012057B7F40120584C374409516F51BE538
:1003C2001BC395175020120556051B80F212057BA0
:1003D200AF16120584E4F51BE51BC39517500712EF
:0603E2000556051B80F228
:0103E80022F2
:100503008F118B128A138914AC058B188A19891AD7
:100513007B1012035CE51104FFE5142410F9E435A4
:0D05230013851218F519891A7B1002035C6C
:0604D1008F0A8D0B8B0C5D
:1004D700E4F510E510C3950C5021E51075F020A444
:1004E700AB0D250FF9E50E35F0FAE510C454F025EC
:0B04F7000BFDAF0A120503051080D8B2
:0105020022D6
:03000000020618DD
:0C061800787FE4F6D8FD7581600203E9EC
:10000300E709F608DFFA8046E709F208DFFA803EDF
:1000130088828C83E709F0A3DFFA8032E309F608CC
:10002300DFFA8078E309F208DFFA807088828C8334
:10003300E309F0A3DFFA806489828A83E0A3F608E8
:10004300DFFA805889828A83E0A3F208DFFA804CC2
:1000530080D280FA80C680D4806980F28033801099
:1000630080A680EA809A80A880DA80E280CA803302
:1000730089828A83ECFAE493A3C8C582C8CCC5837A
:10008300CCF0A3C8C582C8CCC583CCDFE9DEE7804A
:100093000D89828A83E493A3F608DFF9ECFAA9F0C9
:1000A300EDFB2289828A83ECFAE0A3C8C582C8CC1F
:1000B300C583CCF0A3C8C582C8CCC583CCDFEADE38
:1000C300E880DB89828A83E493A3F208DFF980CC9A
:1000D30088F0EF60010E4E60C388F0ED2402B40493
:1000E3000050B9F582EB2402B4040050AF2323453A
:0600F3008223900053730C
:1000F900BB010689828A83E0225002E722BBFE0205
:09010900E32289828A83E4932237
:10011200BB010CE58229F582E5833AF583E02250A2
:1001220006E92582F8E622BBFE06E92582F8E222EC
:0D013200E58229F582E5833AF583E4932206
:10013F00F8BB010DE58229F582E5833AF583E8F0F6
:10014F00225006E92582C8F622BBFE05E92582C8A2
:02015F00F2228A
:10016100E88FF0A4CC8BF0A42CFCE98EF0A42CFC3D
:100171008AF0EDA42CFCEA8EF0A4CDA8F08BF0A4BB
:100181002DCC3825F0FDE98FF0A42CCD35F0FCEB1A
:100191008EF0A4FEA9F0EB8FF0A4CFC5F02ECD39DF
:0F01A100FEE43CFCEAA42DCE35F0FDE43CFC224C
:1001B000E8600FECC313FCED13FDEE13FEEF13FF2D
:0301C000D8F12251
:1005B600E4FFFE1200F9600C0FEF70010E09E970FE
:0505C600F20A80EF22A3
:00000001FF
