:0B00FB00C0F9A4B0999282F88090FF39
:0D00ED000B080A0A0A0A0A0A0A0A02090890
:1000D700EF1FAA0670011E4A600BE4FDEDC394787A
:0500E70050EE0D80F752
:0100EC0022F1
:10008F007580FFE4F5A0751380F9E4FCE4FBAF1372
:10009F007801EF08800123D8FDF513F5A0E92B7542
:1000AF00F00B84740825F0F8E69000FB93F5807F41
:1000BF00027E001200D70BBB08D40CBC0FCEE90494
:0800CF0075F00B84A9F080C25A
:03000000020003F8
:0C000300787FE4F6D8FD75811302004AF6
:10000F0002008FE493A3F8E493A34003F68001F278
:10001F0008DFF48029E493A3F85407240CC8C333F2
:10002F00C4540F4420C8834004F456800146F6DFC1
:10003F00E4800B01020408102040809000EDE47E64
:10004F00019360BCA3FF543F30E509541FFEE493B6
:10005F00A360010ECF54C025E060A840B8E493A37D
:10006F00FAE493A3F8E493A3C8C582C8CAC583CAA8
:10007F00F0A3C8C582C8CAC583CADFE9DEE780BE60
:0100FA000005
:00000001FF
