:0300000002009368
:0C009300787FE4F6D8FD75810702005864
:0C009F00C0F9A4B099928282F88090FF12
:10007D00EF1FAA0670011E4A600B7D78EDD3940028
:05008D0040EE1D80F7AC
:01009200224B
:10005800E4FCF580EC90009F93F4F580EC2401FF1C
:10006800E433FE7C007D0A120003AC057FC87E00E5
:0500780012007D80DF95
:10000300BC000BBE0029EF8DF084FFADF022E4CCE1
:10001300F875F008EF2FFFEE33FEEC33FCEE9DECAA
:10002300984005FCEE9DFE0FD5F0E9E4CEFD22EDF0
:10003300F8F5F0EE8420D21CFEADF075F008EF2F3A
:10004300FFED33FD4007985006D5F0F222C398FD2B
:050053000FD5F0EA22C8
:00000001FF
