:0A0019003F065B4F666D7D077F6FA9
:03015E0001080095
:10000300EF1FAA0670011E4A600BE4FDEDC394784E
:0500130050EE0D80F726
:0100180022C5
:080156008F993099FDC2992236
:1000B200D293D290E4F580759850758920F58775B2
:1000C2008DFD758BFDC298C299D28E75A8907F6402
:1000D2007E001200032097F63097FDE508045403D2
:1000E200F50814601514601D146025240370DF7F69
:1000F20058120156D293D29080D47F41120156C237
:1001020090D29380C97F42120156C293D29080BE90
:0B0112007F43120156C290C29380B3DD
:0300230002011DBA
:10011D00C0E0C083C082C0D075D000C00730981E2B
:10012D00C298E599C394004012E599D39409500BF8
:10013D00AF99EF90001993F5808003758000D0077B
:09014D00D0D0D082D083D0E03282
:03000000020026D5
:0C002600787FE4F6D8FD75810802006DBB
:100032000200B2E493A3F8E493A34003F68001F232
:1000420008DFF48029E493A3F85407240CC8C333CF
:10005200C4540F4420C8834004F456800146F6DF9E
:10006200E4800B010204081020408090015EE47ECF
:10007200019360BCA3FF543F30E509541FFEE49393
:10008200A360010ECF54C025E060A840B8E493A35A
:10009200FAE493A3F8E493A3C8C582C8CAC583CA85
:1000A200F0A3C8C582C8CAC583CADFE9DEE780BE3D
:01016100009D
:00000001FF
