:10018500003C664242663C000008380808083E000C
:10019500003C420408327E00003C421C02423C0006
:1001A500000C1424443C0C00007E407C02423C00C0
:1001B500003C407C42423C00007E44081010100088
:1001C500003C42245C423C00003846423E063C006E
:1001EE00020B0000010800010901010A01010E00C5
:0301FE00010D00F0
:1001D50075B080750901750A01758901758CF17510
:0901E5008A60D28C75A88280FEAC
:03000B0002000EE2
:10000E00C0E0C0F0C083C082C0D075D000C000C0B8
:01001E0007DA
:10001F00E590F4602EE509650A7028E590B4FE03BB
:10002F00750A05E590B4FD03750A04E590B4FB036A
:10003F00750A03E590B4F703750A02E590B4EF0370
:10004F00750A01758CF1758A60AFB07801EF088081
:10005F000123D8FDF5B0E50975F008A4250C250896
:10006F0090018593F4F580E509C3950A502A050C94
:10007F00E50C7002050B6408450B705FF50BF50C72
:10008F00050EE50E64047053F50E0508E5086408C7
:10009F007049F50805098043E509D3950A402A05FB
:1000AF000CE50C7002050B6408450B702EF50BF573
:1000BF000C050EE50EB40423750E001508E508B403
:1000CF00F81975080015098012050CE50C7002056A
:0B00DF000B6408450B7004F50BF50CDA
:0F00EA00D007D000D0D0D082D083D0F0D0E03279
:030000000200F902
:0C00F900787FE4F6D8FD75810E0201400E
:100105000201D5E493A3F8E493A34003F68001F23A
:1001150008DFF48029E493A3F85407240CC8C333FB
:10012500C4540F4420C8834004F456800146F6DFCA
:10013500E4800B01020408102040809001EEE47E6B
:10014500019360BCA3FF543F30E509541FFEE493BF
:10015500A360010ECF54C025E060A840B8E493A386
:10016500FAE493A3F8E493A3C8C582C8CAC583CAB1
:10017500F0A3C8C582C8CAC583CADFE9DEE780BE69
:0102010000FC
:00000001FF
