:100E9700010800010C00010DFF0315FFFFFF030907
:030EA70018140F0D
:10069600E4F524F523F522F5217FDA7E0F7DC97C6A
:1006A60040AB24AA23A922A8211202AC600540036C
:1006B600020746AF24AE23AD22AC2112089E8F2836
:1006C6008E278D268C25AF24AE23AD22AC211208B1
:1006D600888F2C8E2B8D2A8C29E4FFFE7DF07C41A1
:1006E600AB2CAA2BA92AA829120106E4FBFA79F059
:1006F6007841120015120357AD07C005E4FFFE7DD1
:10070600F07C41AB28AA27A926A825120106E4FBFE
:10071600FA79F078411200151203577B01D00512C1
:100726000BA0AF24AE23AD22AC217BCD7ACC79CC05
:10073600783D1200158F248E238D228C2102069F70
:10074600E4F524F523F522F5217FDA7E0F7DC97CB9
:1007560040AB24AA23A922A8211202AC60054003BB
:1007660002083FAF24AE23AD22AC2112089E8F288B
:100776008E278D268C25AF24AE23AD22AC21120800
:10078600888F2C8E2B8D2A8C29E4FFFE7DD87C4108
:10079600AB2CAA2BA92AA829120106E4FBFA79F0A8
:1007A6007841120015120357AD07C005E4FFFE7D20
:1007B600D87C41AB28AA27A926A825120106E4FB66
:1007C600FA79F078411200151203577B01D0051211
:1007D6000BA0E4FFFE7DD07C41AB2CAA2BA92AA856
:1007E60029120106E4FBFA79F0784112001512038A
:1007F60057AD07C005E4FFFE7DD07C41AB28AA2794
:10080600A926A825120106E4FBFA79F07841120020
:10081600151203577B01D005120BA0AF24AE23ADF2
:1008260022AC217B917A0A7906783F1200158F2433
:090836008E238D228C2102074F54
:01083F002296
:0209AE008F2197
:1009B000E5216003B40109E4FFFE7D707C428007FD
:1009C000E4FFFE7D407C418F298E288D278C267484
:1009D000152521F8E6FCE4120323AB29AA28A92750
:1009E000A82612020F7BDA7A0F79C9784012010625
:1009F0007BE47ACB799678401200158F258E248D72
:100A0000238C22120888C004C005C006C0077409E0
:100A10002521F8E6FCE4120323D003D002D001D054
:100A2000001201061203578E2A8F2BAF25AE24AD7C
:100A300023AC2212089EC004C005C006C00774097A
:100A40002521F8E6FCE4120323D003D002D001D024
:100A500000120106120357E52B241EFBEF241EF59E
:100A60002FC2007D1E7F1E12047E740E2521F8E623
:100A7000FCE4120323AB29AA28A927A82612020FF7
:100A80007BDA7A0F79C978401201067BE47ACB7958
:100A90009678401200158F258E248D238C22120803
:100AA00088C004C005C006C00774092521F8E6FC0B
:100AB000E4120323D003D002D001D00012010612A9
:100AC00003578E2A8F2BAF25AE24AD23AC221208FC
:100AD0009EC004C005C006C00774092521F8E6FCC5
:100AE000E4120323D003D002D001D0001201061279
:100AF0000357E52B241EFBEF241EF52FD2007D1E8D
:100B00007F1E12047E740E2521F8E6FF7415252140
:030B1000F8A6073D
:010B130022BF
:0F0F2C00E4FF1209AE7F011209AE7F020209AE87
:100EBF00E4FEEF139290D291C291EFC313FF0EBED7
:020ECF0008F029
:010ED10022FE
:100DCD00E4FFEEC313FEA290E433FDC4333333547A
:100DDD00804206D291C2910FBF08E7EEC4540F7541
:090DED00F00AA4FFEE540F2FFFE1
:010DF60022DA
:100F0A00C292C291D292120EBF120DCDD291C2924A
:010F1A0022B4
:100F1B00C291D292120EBFAF05120EBFC291C292F6
:010F2B0022A3
:100D3500E4FD7F8E120F1BE50F75F00A84C454F095
:100D4500FFE50F75F00A84E5F04FFD7F82120F1B5A
:100D5500E51075F00A84C454F0FFE51075F00A84B7
:100D6500E5F04FFD7F84120F1B7D807F8E020F1BE8
:100E81007F81120F0A8F0E7F83120F0A8F0F7F85CA
:060E9100120F0A8F10226F
:100E4700E50D14600E147015E5100475F01884850F
:0E0E5700F01022E50F0475F03C8485F00F22A8
:03000B00020C5391
:100C5300C0E0C0F0C083C082C0D075D000C000C067
:100C630001C002C003C004C005C006C007758C3DA7
:100C7300758AB00508E508B40210750800E50C7024
:100C830006120696750C01120F2CD007D006D0055C
:100C9300D004D003D002D001D000D0D0D082D083F2
:050CA300D0F0D0E032AA
:03000300020CF4F8
:100CF400C0E0C0F0C0D075D000C005C006C0072059
:100D0400B011E50DF46005E50DB40103750D03158F
:100D14000D801120B105120E47800920B306120D73
:100D240035750DFFD007D006D005D0D0D0F0D0E077
:010D3400328C
:100DF700120CA87D007F00120BFD120D7575A883DC
:100E070075B801D288758901758C3D758AB0D28C09
:0A0E1700E50DB4FFFB120E8180F61A
:020006001040A8
:050EAB00ED908000F055
:0E0EB0007F0A908100E0540364036002DFF4C7
:010EBE002211
:0B0F3B007F0A908100E020E302DFF756
:010F46002288
:050DA200E4FBFD7F24CD
:100DA700AE07120EB0EF70037F0122120EABEF7089
:100DB700037F0222EB120EACEF70037F03229081B8
:060DC70000EEF07F0022A7
:100E6500AE07120EB0EF70037F0122120EABEF70CA
:0C0E7500037F0222908100EEF07F00223B
:100ED200AE07120EB0EF70037F0122908100EEF098
:030EE2007F00226C
:100EE500AE07120F3BEF70037F0122908000EEF0FA
:030EF5007F002259
:100BFD001518A818A6051518A818A607151815185C
:100C0D00900006E493FFA8180808E68FF0A4FFE50E
:100C1D00182403F8E67C002FFFEC35F0A818F60831
:100C2D00A607A818E6FE08E6FDEEFB7F24120DA729
:0F0C3D00A8180808E6F546E5182403F8E6F5447C
:070C4C00E5182404F518224D
:100D7500120DA27FB0120ED2E4FC120F3BE4FF125B
:100D85000EE50DBD00010CE4B505EFECB420EB7FDD
:0C0D9500B2120ED2120DA2E4F546F54495
:010DA100222F
:100CA800C2B3D2B3E4FBFD7F40120DA7900006E467
:100CB80093FD7F41120DA7E4FD7F42120DA790001E
:100CC80006E493FD7F43120DA77D0F7F22120E6568
:100CD8007FA1120ED27F80120ED27F98120ED2758B
:0C0CE8004068754100E4F542F543FF222E
:100BA0001518A818A6031518A818A6051518A8182A
:060BB000A6071518151838
:100BB600A8180808E6FF5407FEC374079EA818F68F
:100BC60044F0A81808F6E5182404F8E66007A81803
:100BD60008740846F6EF131313541FFDE518240393
:100BE600F8E6FF120BFDA81808E644F0FF120ED235
:070BF600E5182405F51822A3
:060E21008B3A8A3B893C7C
:100E2700120425FFAB3DAA3EA93F120425AB3AAAFF
:100E37003BA93C12043EAB3DAA3EA93FEF02043E4C
:06047E008F2C8D2D8B2E4A
:10048400C3E52C952EFFE49400FE120EF8C006C0BE
:1004940007C3E52D952FFFE49400FE120EF8D00556
:1004A400D004D3EF9DEC6480F8EE6480984003029E
:1004B40005A8AC2EE4120323C004C005C006C0077F
:1004C400AC2CE4120323A804A905AA06AB07D007A1
:1004D400D006D005D004120011C004C005C006C067
:1004E40007AC2FE4120323C004C005C006C007AC48
:1004F4002DE4120323A804A905AA06AB07D007D04C
:1005040006D005D004120011D003D002D001D000CF
:1005140012020F8F358E348D338C32AC2CE41203DF
:1005240023AB35AA34A933A832120106C004C0058E
:10053400C006C007AC2DE4120323D003D002D001BF
:10054400D0001200118F398E388D378C36E52CD3BC
:10055400952E4012753D00753E00753F2E7B007A46
:1005640000792C120E21852C30E530D3952E4003D2
:10057400020695AC30E4120323AB35AA34A933A8A0
:1005840032120106AB39AA38A937A836120015125F
:1005940003578F31A200E433FBAD31AF30120BA00F
:1005A400053080C5AC2FE4120323C004C005C00687
:1005B400C007AC2DE4120323A804A905AA06AB07BF
:1005C400D007D006D005D004120011C004C005C065
:1005D40006C007AC2EE4120323C004C005C006C045
:1005E40007AC2CE4120323A804A905AA06AB07D080
:1005F40007D006D005D004120011D003D002D001D8
:10060400D00012020F8F358E348D338C32AC2DE432
:10061400120323AB35AA34A933A832120106C0044D
:10062400C005C006C007AC2CE4120323D003D002DB
:10063400D001D0001200118F398E388D378C36E5F9
:100644002DD3952F4012753D00753E00753F2F7BCD
:10065400007A00792D120E21852D31E531D3952FA5
:10066400502FAC31E4120323AB35AA34A933A8329A
:10067400120106AB39AA38A937A83612001512039D
:10068400578F30A200E433FBAD31120BA00531804B
:01069400CA9B
:010695002242
:10000E000203C3E86480F8E933E83360110460F05A
:10001E00ED33EC337009E8FCE9FDEAFEEBFF220458
:10002E0060DED3EB9FEA9EE99DE8C2E78CF0C2F753
:10003E0095F0400CE8CCF8E9CDF9EACEFAEBCFFB1F
:10004E0012038E85D0F05804700320D5B3E80470E7
:10005E00075002B2D50203CD92D5EC0460F7E4CC82
:10006E00C0E0C398F8603B94186008400DD0E0FBE8
:10007E000203A5E4FBFAC9FC8028E830E406E4C9D3
:10008E00FBE4CAFCE830E305E4C9CACBFCE854073C
:10009E006010F8C3E913F9EA13FAEB13FBEC13FC47
:1000AE00D8F130F52FC3E49CFCEF9BFFEE9AFEEDEA
:1000BE0099FDD0E0FBEF4E4D4C701222DB03020394
:1000CE00CAEC2CFCEF33FFEE33FEED33FDED30E7E3
:1000DE00EB0203A5EF2BFFEE3AFEED39FDD0E0FB70
:1000EE0050130BBB00030203CDED13FDEE13FEEF19
:0800FE0013FFEC13FC0203A543
:10010600EC4D6011E8497017ED33EC3304600DE4F3
:10011600FCFFFEFD22E933E8330470F80203C31244
:10012600038E58046009E4CC248150062850090245
:1001360003CD2840030203CAC0E0EB4A7044B980ED
:1001460006D0E0FB0203B9EF4E701CBD8008EBFF42
:10015600EAFEE9FD80EBE98DF0A4FEE5F00201EF91
:10016600E9CDF9EAFEEBFFEF89F0A4FCE5F0CE89D4
:10017600F0A42EFFE435F0CD89F0A42DFEE435F091
:100186008067EF4E7005BD80D780C3EF8BF0A4ACBF
:10019600F0EE8BF0A42CFCE435F0F8EF8AF0A42CFA
:1001A600E5F038FCE433CB8DF0A42CFCE5F03BF80D
:1001B600EE8AF0A42CFCE5F038F8E433CF89F0A4FD
:1001C6002CFCE5F038CF3400CE89F0A42FFFE5F003
:1001D6003EFEE433C98DF0A42EFEE5F039CD8AF05B
:1001E600A42FFFE5F03EFEE43DFD33D0E0FB5007D3
:1001F6000BBB000F0203CDEC2CFCEF33FFEE33FEFE
:06020600ED33FD0203A52B
:10020C000203CDEC5D046005E8590470030203C3DE
:10021C0012038E580460F6EC4860F2EC7004FDFE9C
:10022C00FF22C860DB2481C85009C39860025006C5
:10023C000203CA9850CAF582E9294B4A7005AB8271
:10024C000203B975F0007C1A7880C3EF9BEE9AED2F
:10025C0099400DC3EF9BFFEE9AFEED99FDE842F03D
:10026C00DC23ACF0D0E0FFD0E0FED0E0FDAB822090
:10027C00E7101BEB60BAEC2CFCEF33FFEE33FEED1A
:10028C0033FD0203A5E803F830E705C0F075F00074
:10029C00EF2FFFEE33FEED33FD40B830E7C280AAFE
:1002AC0074F8CC6480CCC86480C8F582046043C305
:1002BC00EB9FF5F0EA9E42F0E99D42F0E89C45F098
:1002CC0060305018E5825FFFE582F42B5582FB50BD
:1002DC00210ABA001D09B90019088016E5825BFBDA
:1002EC00E582F42F5582FF50090EBE00050DBD00AE
:1002FC00010CC3EB9FF5F0EA9E42F0E99D42F0E859
:0D030C009C45F06007CC4820E701B3EC22CF
:1003190075F020800E75F010800575F0087D007E5F
:10032900007F003392D530D503120450EC334010CE
:10033900EF33FFEE33FEED33FDEC33FCD5F0ED2268
:0E034900E5F0247EA2D513CC92E7CDCEFF22A4
:10035700EDD2E7CD33EC3392D524814006E4FFFE9E
:10036700FDFC22FCE4CFCECDCC24E0501174FF80FD
:10037700EDC3CC13CCCD13CDCE13CECF13CF04709A
:07038700F030D5DE02045046
:100840003A70FA83BCAAE9E43E81E0F8BF9DE9E68C
:100850003F80000039283C1ABB9969663DA335E307
:10086000BF255DE73FC90FDB418DDBCCC44936EEC8
:1008700045C9913FC5B0F83D3F800000C317F5342E
:10088000452FFA73C60AFDDD12092F04A2E192007A
:100890001420E01590084074041203D88026120931
:1008A0002F30E102B20020E0EB8C2D8D2E8E2F8FA9
:1008B0003090085474041203D8A82DA92EAA2FAB87
:1008C00030120106ED4C6007300004EC6480FC221D
:1008D00012092FC0E08C2D8D2E8E2F8F309008782E
:1008E00074031203D8A82DA92EAA2FAB301201062B
:1008F000ECC52DFCEDC52EFDEEC52FFEEFC530FF7E
:1009000090086874031203D8D082A82DA92EAA2FAC
:10091000AB30E58230E00712020FB20080A6EFCBC9
:10092000FFEECAFEEDC9FDECC8FC12020F8095ED8A
:1009300033EC547FCC33920024605007D0E0D0E0F9
:100940000203C37B837AF97922783E120106EDF91E
:1009500033ECF83324815011EFFBEEFA12035712F7
:100960000319ECB2E7FC120015ED33EC33602F24D1
:1009700003F8C313FCED92E7FDE82481E4501FEC7B
:10098000F8EDF9EEFAEFFB120357EF04C2E0FCF5C5
:1009900082120323ECB2E7FC120015E58203FAEDA4
:0E09A00033EC3360071413FCED92E7FDEA22FE
:10038E00E9D2E7C933E833F892D5EDD2E7CD33ECB5
:07039E0033FC5002B2D5222E
:1003A500EC30E7100FBF000C0EBE00080DBD0004B9
:1003B5000BEB6014A2D5EB13FCED92E7FD2274FF65
:1003C500FCFDFEFF22E480F8A2D574FF13FC7D80BE
:0303D500E480EFD2
:1003D800C0E0EFFBEEFAEDF9ECF8120106D0E0F51B
:1003E800F0EFFBEEFAEDF9ECF812045EA3A3A3A379
:1003F800E8C0E0E9C0E0EAC0E0EBC0E0C0F012010C
:100408000612046EA3A3A3A3120015D0F0D0E0FB3C
:0D041800D0E0FAD0E0F9D0E0F8D5F0D42221
:03000000020B14DC
:0C0B1400787FE4F6D8FD758148020B5B89
:10042500BB010689828A83E0225002E722BBFE02D5
:09043500E32289828A83E4932208
:10043E00BB010689828A83F0225002F722BBFE019D
:02044E00F32297
:0E045000C3E49FFFE49EFEE49DFDE49CFC22BD
:10045E00E493FC740193FD740293FE740393FF22E4
:10046E00E493F8740193F9740293FA740393FB22E4
:100EF800C3EE6480948040028007C3E49FFFE49EB1
:020F0800FE22C7
:100B2000020DF7E493A3F8E493A34003F68001F2E7
:100B300008DFF48029E493A3F85407240CC8C333D6
:100B4000C4540F4420C8834004F456800146F6DFA5
:100B5000E4800B0102040810204080900E97E47E90
:100B6000019360BCA3FF543F30E509541FFEE4939A
:100B7000A360010ECF54C025E060A840B8E493A361
:100B8000FAE493A3F8E493A3C8C582C8CAC583CA8C
:100B9000F0A3C8C582C8CAC583CADFE9DEE780BE44
:010EAA000047
:00000001FF
