:0300000002014DAD
:0C014D00787FE4F6D8FD75814E02019425
:10031B0053554E002A2A2A004D4F4E005455530078
:10032B0057454E005448550046524900534154001E
:10023D00180FFF031BFF031FFF0323FF0327FF03FC
:10024D002BFF032FFF0333FF033712274441544580
:10025D002030302D30302D3030202020200012392C
:10026D0054494D452030303A30303A30302020203E
:02027D0020005F
:0C02F900C2A1C2A28B80D2A27F017E00B5
:10030500EF1FAA0670011E4A600BE4FDEDC3947849
:0503150050EE0D80F721
:01031A0022C0
:10037000E4FEEF139290D291C291EFC313FF0EBE31
:0203800008F083
:010382002258
:1002AC00E4FEFDA290E433FFA80508800123D8FDED
:1002BC004206D291C2910DBD08E9EEC4540F75F0FF
:0802CC000AA4FFEE540F2FFFFE
:0102D4002207
:10038300C292C291D2921203701202ACD291C29263
:010393002247
:10035A007C81E4FBAF0412038374082BF8A6070C14
:05036A000C0BBB07EFC6
:01036F00226B
:10039400C2A0D2A11202FFAC80C2A2120301AF0418
:0103A4002236
:0E03A500120394EF20E7F97F057E00020305A6
:0D03B300AB071203A5D2A01202F9C2A222CC
:0D03C000AB071203A5C2A01202F9C2A222CF
:1002D5007F381203C01203017F011203C01203010C
:1002E5007F061203C01203017F0C1203C07F017E3B
:0402F50000020305FB
:0703CD00EF4480FF0203C0B2
:060280008B4B8A4C894DF6
:100286001203CDE4F54EAB4BAA4CA94D854E8275B3
:100296008300120003FF1203B3120301054EE54E5D
:0502A600C3941040E1CB
:0102AB002230
:06033B007B007A00792C22
:10034100EF75F00A842430120030EF75F00A84E56D
:09035100F024309000010200428A
:1001D9001202D512035AAF0E12033B7A00792FAFE0
:1001E9000C1203417A007932AF0B120341E50D7508
:1001F900F003A4240FF8860308E6FA08E6F9783430
:100209007C007D00120130AF0A12033B7A00792F7E
:10021900AF091203417A007932AF081203417A001B
:100229007927E4FF1202807B007A0079397F401236
:040239000280809F20
:100159000201D9E493A3F8E493A34003F68001F2E2
:1001690008DFF48029E493A3F85407240CC8C333A7
:10017900C4540F4420C8834004F456800146F6DF76
:10018900E4800B010204081020408090023DE47EC7
:10019900019360BCA3FF543F30E509541FFEE4936B
:1001A900A360010ECF54C025E060A840B8E493A332
:1001B900FAE493A3F8E493A3C8C582C8CAC583CA5D
:1001C900F0A3C8C582C8CAC583CADFE9DEE780BE15
:01027F00007E
:10000300BB010CE58229F582E5833AF583E02250B2
:1000130006E92582F8E622BBFE06E92582F8E222FC
:0D002300E58229F582E5833AF583E4932216
:10003000BB010689828A83F0225002F722BBFE01AF
:02004000F322A9
:10004200F8BB010DE58229F582E5833AF583E8F0F4
:10005200225006E92582C8F622BBFE05E92582C8A0
:02006200F22288
:10006400E709F60870FA8046E709F20870FA803E5C
:1000740088828C83E709F0A370FA807EE309F6088E
:1000840070FA8076E309F20870FA806E88828C83B5
:10009400E309F0A370FA806289828A83E0A3F608F8
:1000A40070FA805689828A83E0A3F20870FA804A43
:1000B40080D280FA80C680D4806580F2803180103E
:1000C40080A680EA809A80A880DA80E280CA8031A3
:1000D40089828A83ECFAE493A3C8C582C8CCC58319
:1000E400CCF0A3C8C582C8CCC583CC70E9800D8987
:1000F400828A83E493A3F60870F9ECFAA9F0EDFB85
:100104002289828A83ECFAE0A3C8C582C8CCC5835D
:10011400CCF0A3C8C582C8CCC583CC70EA80DD8985
:10012400828A83E493A3F20870F980CE88F0ED24E8
:1001340002B4040050C4F582EB2402B4040050BAA3
:0901440023234582239000B473CB
:00000001FF
