:0A00E300C0F9A4B0999282F8809051
:0A00D800080801020408102040800F
:1000C200EF1FAA0670011E4A600BE4FDEDC394788F
:0500D20050EE0D80F767
:0100D7002206
:10008F007580FFE4F5A0E4FCE4FB74082BF8E6F5BB
:10009F00A0EB9000E393F5807F027E001200C20B6D
:1000AF00BB08E70CBC1EE1E4F5A07FE87E0312005D
:0300BF00C280D329
:03000000020003F8
:0C000300787FE4F6D8FD75810F02004AFA
:10000F0002008FE493A3F8E493A34003F68001F278
:10001F0008DFF48029E493A3F85407240CC8C333F2
:10002F00C4540F4420C8834004F456800146F6DFC1
:10003F00E4800B01020408102040809000D8E47E79
:10004F00019360BCA3FF543F30E509541FFEE493B6
:10005F00A360010ECF54C025E060A840B8E493A37D
:10006F00FAE493A3F8E493A3C8C582C8CAC583CAA8
:10007F00F0A3C8C582C8CAC583CADFE9DEE780BE60
:0100E200001D
:00000001FF
