:10010B00003E4141413E0000000000217F01000004
:10011B000027454545390000002249494936000072
:10012B00000C14247F04000000725151514E00004A
:10013B00003E494949260000004040404F700000F6
:10014B00003649494936000000324949493E000012
:09017000010900010A0001080068
:10015B0075B080E4F508F589758CC1758A10D28C61
:05016B0075A88280FE72
:03000B0002009A56
:10009A00C0E0C0F0C083C082C0D075D000C000C02C
:1000AA0007758CC1758A10AFB07801EF08800123FB
:1000BA00D8FDF5B075F008E508A42509F582E43500
:1000CA00F0F583E582240BF582E5833401F583E4B8
:1000DA0093F4F5800509E509B40803750900050AD2
:1000EA00E50AB4FA0D750A000508E508B40A0375AD
:1000FA000800D007D000D0D0D082D083D0F0D0E092
:01010A0032C2
:0300000002000EED
:0C000E00787FE4F6D8FD75810A020055E9
:10001A0002015BE493A3F8E493A34003F68001F2A0
:10002A0008DFF48029E493A3F85407240CC8C333E7
:10003A00C4540F4420C8834004F456800146F6DFB6
:10004A00E4800B0102040810204080900170E47ED5
:10005A00019360BCA3FF543F30E509541FFEE493AB
:10006A00A360010ECF54C025E060A840B8E493A372
:10007A00FAE493A3F8E493A3C8C582C8CAC583CA9D
:10008A00F0A3C8C582C8CAC583CADFE9DEE780BE55
:010179000085
:00000001FF
