:10000300005E215141413E00FF0101010101010157
:10001300010101010181818181818181818181814D
:1000230081818181818181818181818181818181BD
:1000330081818181818181818181818181818181AD
:10004300818181818181818181818181818181819D
:10005300818181818181818181818181818181818D
:10006300818181818181818181818181818181817D
:1000730081818181818181818181818181010101ED
:1000830001010101010101FFFF0000000000000068
:100093000000000000FF000000000000000000005E
:1000A300000000000000000000000000000000004D
:1000B300000000000000000000000000000000003D
:1000C300000000000000000000000000000000002D
:1000D300000000000000000000000000000000001D
:1000E300000000000000000000000000000000000D
:1000F300000000000000000000000000FF000000FE
:1001030000000000000000FFFF00000000000000EE
:100113000000000000FF00000000000000000000DD
:10012300FE020202020202020202020202020202B0
:10013300020202020202020202020202020202029C
:10014300020202020202020202020202020202028C
:10015300020202020202020202020202020202027C
:10016300020202020202020202020202020202026C
:1001730002FE00000000000000000000FF0000007D
:1001830000000000000000FFFF000000000000006E
:100193000000000000FF000000000000000000005D
:1001A300FF00000000000000000000FF010101014A
:1001B300010101010101010101010101010101012C
:1001C300010101010101010101010101010101011C
:1001D300010101010101010101010101010101010C
:1001E30001010101010101FF000000000000000006
:1001F30000FF00000000000000000000FF000000FE
:1002030000000000000000FFFF00000000000000ED
:100213000000000000FF00000000000000000000DC
:10022300FF00000000000000000000FF80808080CD
:1002330080808080808080808080808080808080BB
:1002430080808080808080808080808080808080AB
:10025300808080808080808080808080808080809B
:1002630080808080808080FF00000000000000000C
:1002730000FF00000000000000000000FF0000007D
:1002830000000000000000FFFF000000000000006D
:100293000000000000FF000000000000000000005C
:1002A3007F4040404040404040404040404040400C
:1002B300404040404040404040404040404040403B
:1002C300404040404040404040404040404040402B
:1002D300404040404040404040404040404040401B
:1002E300404040404040404040404040404040400B
:1002F300407F00000000000000000000FF0000003D
:1003030000000000000000FFFF00000000000000EC
:100313000000000000FF80808080808080808080DB
:1003230080808080808080808080808080808080CA
:1003330080808080808080808080808080808080BA
:1003430080808080808080808080808080808080AA
:10035300808080808080808080808080808080809A
:10036300808080808080808080808080808080808A
:10037300808080808080808080808080FF0000007B
:1003830000000000000000FFFF80808080808080EC
:10039300808080808080808080808080808080805A
:1003A300808080808080808080808080808080804A
:1003B300808080808080808080808080808080803A
:1003C300808080808080808080808080808080802A
:1003D300808080808080808080808080808080801A
:1003E300808080808080808080808080808080800A
:1003F30080808080808080808080808080808080FA
:0804030080808080808080FF72
:10068200EF1FAA0670011E4A600BE4FDEDC39478C9
:0506920050EE0D80F7A1
:010697002240
:0E059400ED24B0FF1205A27F101205A2E4FFB5
:1005A200C2A6C2A3C2A700000000E4FEEF25E0FF3E
:1005B20092A5D2A600000000C2A60EBE08EE000060
:0405C2000000D2A3C0
:0105C6002212
:1005C700C2A6C2A3D2A700000000E4FEEF25E0FF09
:1005D70092A5D2A600000000C2A60EBE08EE00003B
:0405E7000000D2A39B
:0105EB0022ED
:1004DC00C2A47F0A7E00120682D2A47FA21205A2B9
:1004EC007FA01205A27FC81205A27F271205A27F4A
:1004FC00811205A27F1B1205A27F2C1205A27F2E52
:10050C001205A27F2F1205A27FA41205A27FAF02B3
:02051C0005A236
:10064E007F401205A2E4FD120594E4FC7FFF120523
:09065E00C70CBC80F70DBD08EECD
:010667002270
:100668007F401205A2E4FD120594E4FCE4FF1205A4
:09067800C70CBC80F70DBD08EEB3
:010681002256
:100482007F401205A27FB01205987FFF1205C7E4D4
:10049200FD7F011205C70DBD7EF77FFF1205C7E480
:1004A200FCEC24B11205977FFF1205C7E4FDE4FFBF
:1004B2001205C70DBD7EF77FFF1205C70CBC06E112
:1004C2007FB71205987FFF1205C7E4FD7F801205F2
:0A04D200C70DBD7EF77FFF0205C7CE
:100610007F401205A2E4FD120594E4FC7FAA1205B6
:0E062000C77F551205C70CBC40F20DBD08E99E
:01062E0022A9
:10062F007F401205A2E4FD120594E4FC7F551205EC
:0E063F00C77FAA1205C70CBC40F20DBD08E92A
:01064D00228A
:1005EC007F401205A2E4FD120594E4FCE4FBEB90C1
:1005FC00000393FF1205C70BBB08F30CBC10ED0DE9
:03060C00BD08E442
:01060F0022C8
:100560007F401205A2E4FD120594E4FC75F080EDD5
:10057000A42CF582E435F0F583E582240BF582E5C1
:10058000833400F583E493FF1205C70CBC80DD0DB6
:03059000BD08D4CF
:010593002245
:10051E007590FF7F057E00120682209705750901F2
:10052E008003E4F50920950F750A010508E508C357
:10053E0094064003E4F508209611750A01E508D3E8
:10054E0094004004150880037508057F647E000240
:02055E00068213
:10040B00750901E4F508750A011204DC7F057E000D
:10041B001206821206687FC87E0012068212051E23
:10042B00E50A64017034E508146015146017146054
:10043B001914601B14601D2405701C12064E8017C6
:10044B001204828012120610800D12062F800812E1
:10045B0005EC8003120560E4F50AE509B401BE75ED
:10046B000A010508E508C394064003E4F5087FE894
:07047B007E0312068280A639
:030000000206985D
:0C069800787FE4F6D8FD75810A02040B9F
:00000001FF
