:10031E007590FFD2B100C2B0D2B200C2B2E5803346
:01032E0022AC
:0902E300C2B3D2B4E55424B8FF03
:1002EC0012031E40FB7590FFC2B100C2B08F90D2BA
:0502FC00B200C2B222B5
:10029E00AB57AA58A959855A82758300120271FF6D
:1002AE0012031E40FB7590FFC2B100D2B08F90D2E8
:0502BE00B200C2B222F3
:10030100D2B3D2B47F381202EC7F0F1202EC7F011C
:0D0311001202EC7F061202EC7FC00202EC2B
:0600E3008F548D558B5671
:1000E900E555C394405066D2B3C2B41202E7E55550
:1000F9002440FF1202ECE5552556FFE433FEC3EF19
:100109009440EE648094805011E4F55AE55AC39501
:1001190056505312029E055A80F2E4F55AC37440B0
:100129009555FFE55AC39F500712029E055A80ED67
:100139001202E37F401202ECC374409555F55AE56B
:100149005AC39556502012029E055A80F21202E3B4
:10015900AF551202ECE4F55AE55AC3955650071209
:06016900029E055A80F21F
:01016F00226D
:100244008F508B518A528953AC058B578A588959E0
:100254007B101200E3E55004FFE5532410F9E43564
:0D02640052855157F55889597B100200E36F
:060212008F498D4A8B4B61
:10021800E4F54FE54FC3954B5021E54F75F020A409
:10022800AB4C254EF9E54D35F0FAE54FC454F025B1
:0B0238004AFDAF49120244054F80D878
:010243002298
:0601DD008F498D4A8B4B97
:1001E300E4F550E550C3954C5024E550854BF0A4FD
:1001F300254FF9E54E35F0854D57F5588959E549B1
:0E0203002550FFAB4BAD4A1200E3055080D5ED
:0102110022CA
:10000300FF0F0F4F4F4F4FFFFF0F0FCFCF0F1FFFAD
:10001300FFF0F0F2F2F2F2FFFFF0F0FCFCFCFEFF67
:10002300FF0F0F4F4F4F0F1FFFFF3F1FCFCFCF1FAD
:10003300FFF0F0FEFEFCF8F3F7FFFCF8F3F3F3F840
:100043003FFFFF0F0F1FFFFF1F0F0FFFFFFFFFFFFD
:10005300FCFFFFF0F0FEF0F0FEF0F0FFFFFFFFFF0C
:100063003F393939010139393901013939393FFF0B
:10007300FFDF9FC7E0F8FFFFFF8080FFFFFFFFFF69
:10008300E767000067E7FF0101F9F90101FFFFFFDF
:10009300F9FC8080FEDC8FC0F0FFFFC0809F8FFFE4
:1000A300FF1919F909096909690909F91919FFFFFB
:1000B300FFC0C0CFC8C8CBC8CBC8C8CF8080FFFFA4
:1000C300F90909C9090941410909C9C90909F9FF17
:1000D300FF8080CFC0C0CBCBC0C0CFCF8080FFFF1D
:1002C300E4FDFCEF2DFBEE3C8B82F583E0FB740831
:0F02D3002DF8A6030DBD00010CED64404C70E446
:0102E20022F9
:10017000120301754CFF754D00754E037B077D0919
:10018000E4FF120212E4F548E54875F080A4FFAEE2
:10019000F01202C3E5482403FF754C01754D00754C
:1001A0004E00754F087B40E4FD1201DDE54825E077
:1001B0000475F040A4FFAEF01202C3E5482403FF2B
:1001C000754C01754D00754E00754F087B407D40A4
:0C01D0001201DD0548E548C3940540AC71
:0101DC002200
:0300000002032FC9
:0C032F00787FE4F6D8FD75815A02017059
:10027100BB010CE58229F582E5833AF583E0225042
:1002810006E92582F8E622BBFE06E92582F8E2228C
:0D029100E58229F582E5833AF583E49322A6
:00000001FF
