:0F01EF003F065B4F666D7D077F6FFEFDFBF7EFF1
:0A01FE0005090000000000010800E0
:1001DD00AD071FED600BE4FEEEC3947850F20E8078
:0101ED00F71A
:0101EE0022EE
:10019E0075A88A758951758C3C758AB020900E7F32
:1001AE000A1201DD2090F5D28ED28C80EFE4FCECA9
:1001BE00C3940550E7EC9001F993F5A074092CF85F
:0F01CE00E69001EF93F5807F021201DD0C80E0D7
:03000B0002000EE2
:10000E00C0E0C0F0C0D075D000C000C002C003C0B8
:07001E0004C005C006C00785
:10002500758C3C758AB00508E50864147075C28E38
:10003500C28CF508AF8DEFFEAD8B7C00E42DFFEC97
:100045003EAB07FA7C277D10FE1201498F0D7C031C
:100055007DE8AF03AE021201497C007D0A12014919
:100065008D0C7C007D64AF03AE021201497C007DDE
:100075000A1201498D0B7C007D64AF03AE021201AB
:10008500497E007F0ACFCDCFCECCCE1201498F0A53
:10009500AE02AF037C007D0A1201498D09758B0004
:0300A500758D0056
:1000A800D007D006D005D004D003D002D000D0D0DD
:0500B800D0F0D0E032A1
:030000000200BD3E
:0C00BD00787FE4F6D8FD75810D02010487
:10014900BC000BBE0029EF8DF084FFADF022E4CC9A
:10015900F875F008EF2FFFEE33FEEC33FCEE9DEC63
:10016900984005FCEE9DFE0FD5F0E9E4CEFD22EDA9
:10017900F8F5F0EE8420D21CFEADF075F008EF2FF3
:10018900FFED33FD4007985006D5F0F222C398FDE4
:050199000FD5F0EA2281
:1000C90002019EE493A3F8E493A34003F68001F2AE
:1000D90008DFF48029E493A3F85407240CC8C33338
:1000E900C4540F4420C8834004F456800146F6DF07
:1000F900E4800B01020408102040809001FEE47E98
:10010900019360BCA3FF543F30E509541FFEE493FB
:10011900A360010ECF54C025E060A840B8E493A3C2
:10012900FAE493A3F8E493A3C8C582C8CAC583CAED
:10013900F0A3C8C582C8CAC583CADFE9DEE780BEA5
:0102080000F5
:00000001FF
