:1000A900C0F9A4B0999282F880908883C6A1868EFF
:1000B900BFFA15FA67FB04FB90FC0CFC44FCACFD91
:1000C90009FD34FD82FDC8FE06FE22FE56FE85FEB0
:0100D9009A8C
:10010400AD071FED600BE4FEEEC3947850F20E8051
:01011400F7F3
:0101150022C7
:10000E0075900F7F02120104E590640F24FE6010BC
:10001E0024FE601024FC601024077041E4FC800A6A
:10002E007C0180067C0280027C037590F07F0212B8
:10003E000104E590C4540F640F24FE600E24FE608C
:10004E001024FC601224077014801074042CFC80A1
:0D005E000A74082CFC8004740C2CFC8C0827
:01006B002272
:03000B0002006C84
:10006C00C0E0C083C082C0D075D000C004C005C041
:10007C0007E50825E024BAF582E43400F583E4931F
:10008C00FC740193FDECF58CAF058F8AB2B0D007F0
:0D009C00D005D004D0D0D082D083D0E03287
:1000DA007580BF75890175A8827590F0E59064F006
:1000EA00600F12000EE5089000A993F580D28C806B
:0A00FA0002C28C7F0212010480DFB5
:03000000020116E4
:0C011600787FE4F6D8FD7581080200DA5D
:00000001FF
