:100306003F065B4F666D7D077F6F000001010203AC
:0B031600030404050606070808090997
:1002EA00020F46EC010E0002110000040A00000091
:0B02FA0000C101C102C1800208000029
:04032100EDFF7E006E
:0A032500EF1F70011E144E70F72246
:10025800D2B67F087E00120325C2B67F5A7E0012EE
:100268000325D2B67F087E00120325A2B6E433FD2B
:0B0278007F647E00120325D2B6AF05A4
:010283002258
:10028400E4FDD2B600FCC2B6EDC313FDD2B6000045
:1002940030B6034305807F1E7E00120325D2B60CC0
:0502A400BC08E3AF05FA
:0102A9002232
:0802AA001202B21202587FCCCF
:0202B200AD0796
:1002B400E4FBC2B6ED1392B67F057E00120325D28D
:0902C400B6EDC313FD0BBB08E904
:0102CD00220E
:10022900120258BF0103C200227FCC1202B27F44DE
:100239001202AA7FBE1202B21202848F1112028424
:0F0249008F121202848F0F1202848F10D20022A4
:1002CE001202AD7F4E1202B2AF0F1202B2AF101277
:0C02DE0002B27F7F1202AA7F480202B227
:10000E007D96E4FCFBE51254F8FFBFF8116312FF76
:10001E00E511F404F511700205127C017BFDE5116A
:10002E00540F90031193F50AE5125407C454F0FFD0
:10003E00E51154F0C4540F4FF50EEC6007E50EF4C5
:10004E0004FF8002AF0EC3E50F6480F8EF64809862
:10005E004003D38001C39201D3E5106480F8EF64AE
:10006E00809850028001C39202E50E75F06484F50B
:10007E000DE50E75F06484E5F075F00A84F50CE577
:10008E000E75F00A8485F00BE50D700E750D0A7B6A
:10009E00FBE50C7005750C0A7BF7E4FA7580397573
:1000AE00A07F12032175A0FF75806375A0BF120398
:1000BE002175A0FFE50A90030693F58075A0DF1267
:1000CE00032175A0FFE50B934480F58075A0EF1218
:1000DE00032175A0FFE50C93F58075A0F71203219F
:1000EE0075A0FFE50D93F58075A0FB12032175A099
:1000FE00FFEC600B7580408BA012032175A0FF0AE8
:05010E00EA641E709779
:0101130022C9
:03000B000201A04F
:1001A000C0E0C0D075D000C006C007758CFD758A50
:1001B00018B2B70509E50970020508FFAE08BE01CF
:1001C0001BBF9018750800750900300104B29480B7
:1001D00002D294300204B2958002D295D007D006A4
:0501E000D0D0D0E03298
:1001E50075A882758901758CFD758A18C28CD294A3
:1001F500D2951202CE1202297F507EC31203257FAB
:10020500507EC3120325120229300011200103304C
:100215000204D28C8002C28C12000E80E9E4F580C3
:04022500F5A080E2DE
:03000000020114E6
:0C011400787FE4F6D8FD75812002015BC5
:100120000201E5E493A3F8E493A34003F68001F20F
:1001300008DFF48029E493A3F85407240CC8C333E0
:10014000C4540F4420C8834004F456800146F6DFAF
:10015000E4800B01020408102040809002EAE47E53
:10016000019360BCA3FF543F30E509541FFEE493A4
:10017000A360010ECF54C025E060A840B8E493A36B
:10018000FAE493A3F8E493A3C8C582C8CAC583CA96
:10019000F0A3C8C582C8CAC583CADFE9DEE780BE4E
:0103050000F7
:00000001FF
