:1004F10001280020200820434831203D20302E30A3
:1005010030207600000020434832203D20302E303C
:060511003020760000001E
:10039D00E4FEFDC2B00000C2B10000D2B20000D236
:1003AD00B10000C2B1D2B20000D2B10000C2B1EFB3
:1003BD0024FF92B20000D2B10000C2B1D2B200004F
:1003CD00E4FFD2B10000C2B10000EE25E0FEA2B202
:1003DD00E4334EFE0FBF08EAE4FFA2B2E433FCA8FB
:1003ED0007088002C333D8FC4205D2B10000C2B168
:1003FD0000000FBF08E4D2B0EEB50503FF80027F09
:03040D00008F2835
:0104100022C9
:020411008F2A30
:10041300AC28E41201B3E4FBFA79FA78431200033F
:10042300E4FBFA797F784312010C1201E7AB07AAC8
:10043300067C007D64120295EF2430FFE52AC45444
:10044300F0240FF8A6077C007D0AAF03AE02120268
:10045300957C007D0A120295ED2430FFE52AC454F1
:10046300F02411F8A607AE02AF037C007D0A120246
:0F04730095ED2430FFE52AC454F02412F8A607B3
:010482002257
:08055300900001E020E7F9220D
:09054100120553900000EFF022B6
:09054A00120553900002EFF022AB
:10052D007F381205417F011205417F061205417F7B
:04053D000C02054166
:060483008B2A8A2B892C54
:10048900E4F52DAB2AAA2BA92C120518C3E52D9F3B
:10049900EE6480F87480985017AB2AAA2BA92C8592
:1004A9002D82758300120268FF12054A052D80D33B
:0104B9002220
:1004BA0012052DE4F529AF2912039DAF2912041163
:1004CA00E52970047F8080027FC0120541E5297505
:1004DA00F010A42408F9E4FAFB1204830529E5299B
:0704EA00C3940240D180CC55
:10000300EC4D6011E8497017ED33EC3304600DE4F7
:10001300FCFFFEFD22E933E8330470F802025312B9
:10002300021E58046009E4CC2481500628500902BA
:10003300025D28400302025AC0E0EB4A7044B980D3
:1000430006D0E0FB020249EF4E701CBD8008EBFFB7
:10005300EAFEE9FD80EBE98DF0A4FEE5F00200EC99
:10006300E9CDF9EAFEEBFFEF89F0A4FCE5F0CE89D8
:10007300F0A42EFFE435F0CD89F0A42DFEE435F095
:100083008067EF4E7005BD80D780C3EF8BF0A4ACC3
:10009300F0EE8BF0A42CFCE435F0F8EF8AF0A42CFE
:1000A300E5F038FCE433CB8DF0A42CFCE5F03BF811
:1000B300EE8AF0A42CFCE5F038F8E433CF89F0A401
:1000C3002CFCE5F038CF3400CE89F0A42FFFE5F007
:1000D3003EFEE433C98DF0A42EFEE5F039CD8AF05F
:1000E300A42FFFE5F03EFEE43DFD33D0E0FB5007D7
:1000F3000BBB000F02025DEC2CFCEF33FFEE33FE73
:06010300ED33FD020235A0
:1001090002025DEC5D046005E859047003020253C4
:1001190012021E580460F6EC4860F2EC7004FDFE11
:10012900FF22C860DB2481C85009C39860025006C9
:1001390002025A9850CAF582E9294B4A7005AB82E6
:1001490002024975F0007C1A7880C3EF9BEE9AEDA4
:1001590099400DC3EF9BFFEE9AFEED99FDE842F041
:10016900DC23ACF0D0E0FFD0E0FED0E0FDAB822094
:10017900E7101BEB60BAEC2CFCEF33FFEE33FEED1E
:1001890033FD020235E803F830E705C0F075F000E9
:10019900EF2FFFEE33FEED33FD40B830E7C280AA02
:1001A90075F020800E75F010800575F0087D007ED1
:1001B900007F003392D530D5031202EAEC334010A8
:1001C900EF33FFEE33FEED33FDEC33FCD5F0ED22DA
:0E01D900E5F0247EA2D513CC92E7CDCEFF2216
:1001E700EDD2E7CD33EC3392D524814006E4FFFE10
:1001F700FDFC22FCE4CFCECDCC24E0501174FF806F
:10020700EDC3CC13CCCD13CDCE13CECF13CF04700B
:07021700F030D5DE0202EA1F
:10021E00E9D2E7C933E833F892D5EDD2E7CD33EC26
:07022E0033FC5002B2D5229F
:10023500EC30E7100FBF000C0EBE00080DBD00042A
:100245000BEB6014A2D5EB13FCED92E7FD2274FFD6
:10025500FCFDFEFF22E480F8A2D574FF13FC7D802F
:03026500E480EF43
:03000000020311E7
:0C031100787FE4F6D8FD75812D020358BA
:10026800BB010CE58229F582E5833AF583E022504B
:1002780006E92582F8E622BBFE06E92582F8E22295
:0D028800E58229F582E5833AF583E49322AF
:10029500BC000BBE0029EF8DF084FFADF022E4CC4D
:1002A500F875F008EF2FFFEE33FEEC33FCEE9DEC16
:1002B500984005FCEE9DFE0FD5F0E9E4CEFD22ED5C
:1002C500F8F5F0EE8420D21CFEADF075F008EF2FA6
:1002D500FFED33FD4007985006D5F0F222C398FD97
:0502E5000FD5F0EA2234
:0E02EA00C3E49FFFE49EFEE49DFDE49CFC2225
:10051800E4FFFE1202F8600C0FEF70010E09E9709B
:05052800F20A80EF2241
:10031D000204BAE493A3F8E493A34003F68001F238
:10032D0008DFF48029E493A3F85407240CC8C333E1
:10033D00C4540F4420C8834004F456800146F6DFB0
:10034D00E4800B01020408102040809004F1E47E4B
:10035D00019360BCA3FF543F30E509541FFEE493A5
:10036D00A360010ECF54C025E060A840B8E493A36C
:10037D00FAE493A3F8E493A3C8C582C8CAC583CA97
:10038D00F0A3C8C582C8CAC583CADFE9DEE780BE4F
:0105170000E3
:1002F800BB010689828A83E0225002E722BBFE0204
:09030800E32289828A83E4932236
:00000001FF
