:10020C0020506C65617365205072657373204B319F
:10021C0020616E64207761697420666F72206120A2
:10022C007768696C652C43757272656E74204672C2
:10023C00657175656E63792077696C6C2073686F76
:10024C0077206F6E20746865204C43442E2E2E0050
:1002EA0011084672657175656E63792D2D2D2D2D58
:0602FA00487A0001190022
:10031500AD071FED600BE4FEEEC3947850F20E803E
:01032500F7E0
:0103260022B4
:10025C00E4F51A120301E51A90020C936017740C62
:10026C00251AF9E43402FA7BFF1202A7051A7F0F54
:10027C0012031580E175A88A758951758C3C758AB5
:10028C00B020900C7F0A120315209004D28ED28CD1
:0B029C007B007A0079081202A780E6C0
:03000B0002000EE2
:10000E00C0E0C0F0C0D075D000C000C002C003C0B8
:07001E0004C005C006C00785
:10002500758C3C758AB00519E519641460030200E6
:10003500E9C28EC28CF519AF8DEFFEAD8B7C00E465
:100045002DFFEC3EAB07FA7C277D10FE1201B7EFC2
:100055002430F5117C037DE8AF03AE021201B77CB5
:10006500007D0A1201B7ED2430F5127C007D64AFE6
:1000750003AE021201B77C007D0A1201B7ED2430F0
:10008500F5137C007D64AF03AE021201B77E007FDD
:100095000ACFCDCFCECCCE1201B7EF2430F514AEBA
:1000A50002AF037C007D0A1201B7ED2430F515E59A
:1000B50011B430037511207F0A7E0074082FF8E60D
:1000C500B4301B74072FF8E6B42013EF640D4E60AF
:1000D5000D0FEF70010E142408F8762080DD758B66
:0400E50000758D0015
:1000E900D007D006D005D004D003D002D000D0D09C
:0500F900D0F0D0E03260
:08000300900001E020E7F92262
:09032700120003900000EFF02227
:09033000120003900002EFF0221C
:100301007F301203277F011203277F061203277F05
:040311000C020327B0
:0602A7008B1B8A1C891D5F
:1002AD00E4FE7F80120327AB1BAA1CA91D8E82754D
:1002BD00830012018A6017EEC394105011AF060E21
:1002CD008F8275830012018AFF12033080D9EEC32D
:0C02DD00941050087F201203300E80F2B5
:0102E90022F2
:030000000200FEFD
:0C00FE00787FE4F6D8FD75811D020145F5
:10018A00BB010CE58229F582E5833AF583E022502A
:10019A0006E92582F8E622BBFE06E92582F8E22274
:0D01AA00E58229F582E5833AF583E493228E
:1001B700BC000BBE0029EF8DF084FFADF022E4CC2C
:1001C700F875F008EF2FFFEE33FEEC33FCEE9DECF5
:1001D700984005FCEE9DFE0FD5F0E9E4CEFD22ED3B
:1001E700F8F5F0EE8420D21CFEADF075F008EF2F85
:1001F700FFED33FD4007985006D5F0F222C398FD76
:050207000FD5F0EA2212
:10010A0002025CE493A3F8E493A34003F68001F2AD
:10011A0008DFF48029E493A3F85407240CC8C333F6
:10012A00C4540F4420C8834004F456800146F6DFC5
:10013A00E4800B01020408102040809002EAE47E69
:10014A00019360BCA3FF543F30E509541FFEE493BA
:10015A00A360010ECF54C025E060A840B8E493A381
:10016A00FAE493A3F8E493A3C8C582C8CAC583CAAC
:10017A00F0A3C8C582C8CAC583CADFE9DEE780BE64
:0103000000FC
:00000001FF
