:0A022900C0F9A4B0999282F8809009
:1001B00008080000BF0000BF000008180102040882
:0701C0001020408001100037
:1001C800EF1FAA0670011E4A600BE4FDEDC3947888
:0501D80050EE0D80F760
:0101DD0022FF
:1001F400E4FEEF139290D291C291EFC313FF0EBEAF
:0202040008F000
:0102060022D5
:10018600E4FFEEC313FEA290E433FDC433333354CD
:10019600804206D291C2910FBF08E7EEC4540F7594
:0901A600F00AA4FFEE540F2FFF34
:0101AF00222D
:10020700C292C291D2921201F4120186D291C29285
:0102170022C4
:10021800C291D2921201F4AF051201F4C291C292B6
:0102280022B3
:10014600E4FD7F8E120218E51275F00A84C454F09D
:10015600FFE51275F00A84E5F04FFD7F8212021862
:10016600E51375F00A84C454F0FFE51375F00A84AC
:10017600E5F04FFD7F841202187D807F8E02021803
:1001DE007F811202078F117F831202078F127F8594
:0601EE001202078F13222C
:030003000200FDFB
:1000FD00C0E0C0F0C0D075D000C005C006C007205C
:10010D00B50F751001E5130475F0188485F0138093
:10011D001B20B60F751001E5120475F03C8485F0B7
:10012D0012800920B706120146751000D007D006BF
:09013D00D005D0D0D0F0D0E032A2
:1000920075A881D288E51070031201DEE51375F0B0
:1000A2000A8490022993F508E51375F00A84E5F0B5
:1000B20093F509E51275F00A8493F50BE51275F0D4
:1000C2000A84E5F093F50CE51175F00A8493F50EB8
:1000D200E51175F00A84E5F093F50FE4FCECC394A6
:1000E2000850B274182CF8E6F5A074082CF8E6F55E
:0B00F200807F027E001201C80C80E23B
:03000000020006F5
:0C000600787FE4F6D8FD75811F02004DE4
:10001200020092E493A3F8E493A34003F68001F272
:1000220008DFF48029E493A3F85407240CC8C333EF
:10003200C4540F4420C8834004F456800146F6DFBE
:10004200E4800B01020408102040809001B0E47E9D
:10005200019360BCA3FF543F30E509541FFEE493B3
:10006200A360010ECF54C025E060A840B8E493A37A
:10007200FAE493A3F8E493A3C8C582C8CAC583CAA5
:10008200F0A3C8C582C8CAC583CADFE9DEE780BE5D
:0101C7000037
:00000001FF
