:10032900C0F9A4B0999282F88090000000010003FE
:10033900000500070009000F001E0032006400C814
:0803490000E60118012C015E21
:08036700010800010A00C18039
:10035100EF1FAA0670011E4A600BE4FDEDC39478FD
:0503610050EE0D80F7D5
:010366002274
:1002F200E5A0B4FF037F00227F0A7E00120351AF04
:10030200A0EF2405601124FE600814700F750E0121
:10031200800D750E028008750E038003E4F50EE56C
:06032200A0B4FFFBAF0ECA
:0103280022B2
:06000300EFF5908E802253
:03000B0002000EE2
:10000E00C0E0C083C082C0D075D000C000C006C0A2
:10001E00070508C3E508950DE4950C50030201C8C9
:10002E00750800E50BB4080040030201C1900042C0
:10003E00F828287302005A02006C0200820200B8EF
:10004E000200F202012802015A02019074017E00A0
:10005E00A80A088005C333CE33CED8F9800FE47ECC
:10006E0080A80A088005CEC313CE13D8F9FF12005C
:10007E00030201C1300012740F7E00A80A08800529
:10008E00C333CE33CED8F9800FE47EF0A80A0880B1
:10009E0005CEC313CE13D8F9FF120003E50A640F81
:1000AE0060030201C1B2000201C1300012740F7E62
:1000BE0000A80A088005C333CE33CED8F9800FE4EA
:1000CE007EF0A80A088005CEC313CE13D8F9F4FF2C
:1000DE00EEF4FE120003E50A640F60030201C1B2E2
:1000EE00000201C1300012743F7E00A80A0880058C
:1000FE00C333CE33CED8F9800FE47EFCA80A088035
:10010E0005CEC313CE13D8F9FF120003E50A640F10
:10011E0060030201C1B2000201C130001274017EFF
:10012E0000A80A088005C333CE33CED8F9800FE479
:10013E007E80A80A088005CEC313CE13D8F9FF120D
:10014E000003E50A640F706BB20080673000127412
:10015E00017E00A80A088005C333CE33CED8F980BD
:10016E000FE47E80A80A088005CEC313CE13D8F9FB
:10017E00F4FFEEF4FE120003E50A640F7035B200D0
:10018E00803130001274FE7EFFA80A088005C3334A
:10019E00CE33CED8F9801174FF7E7FA80A08800670
:1001AE00CEA2E713CE13D8F8FF120003E50AB40F60
:1001BE0002B200E50A04540FF50AD007D006D000AB
:0901CE00D0D0D082D083D0E03201
:10026300EF24FE601A1460222402703DD200E4F5EC
:100273000AE50B045407F50B90032993F5B022E527
:1002830009D39401402315098009E509C3940F504C
:10029300180509E50925E02433F582E43403F583E1
:0A02A300E493F50C740193F50D22AD
:1002AD0075B0FF75A0FF7590FF7580FFE4F50B75B8
:1002BD000904E50925E02433F582E43403F583E4EC
:1002CD0093F50C740193F50DE50B90032993F5B09F
:1002DD0075A882E4F589D28C1202F2AE07EE60F8B1
:0502ED0012026380F322
:030000000201D723
:0C01D700787FE4F6D8FD75812002021E3E
:1001E3000202ADE493A3F8E493A34003F68001F283
:1001F30008DFF48029E493A3F85407240CC8C3331D
:10020300C4540F4420C8834004F456800146F6DFEB
:10021300E4800B0102040810204080900367E47E11
:10022300019360BCA3FF543F30E509541FFEE493E0
:10023300A360010ECF54C025E060A840B8E493A3A7
:10024300FAE493A3F8E493A3C8C582C8CAC583CAD2
:10025300F0A3C8C582C8CAC583CADFE9DEE780BE8A
:01036F00008D
:00000001FF
