:1002FE002D2D2D203939205461626C65202D2D2D28
:01030E0000EE
:1002EA00110820202020202020202020202020202B
:0302FA00202000C1
:04028A007F057E006E
:10028E00EF1FAA0670011E4A600BE4FDEDC39478C1
:05029E0050EE0D80F799
:0102A3002238
:080220008B218A228923AF051E
:1002280012030FE4F524AB21AA22A92385248275A1
:100238008300120003FF1202A40524E524C39410CE
:0202480040E490
:01024A002291
:100147001201DF7C007D09120030ED04F521120158
:10015700DF7C007D09120030ED04FFE5218FF0A45C
:10016700FE75F00A84FDEE75F00A84AEF0E52124F1
:1001770030F509750B2AEF2430F50D750F3DED2489
:0E01870030F511EE2430F512ED7003751120E5
:010195002247
:1002D600C2A0D2A1D2A200000000E580339200C2E3
:0302E600A2A200D1
:0102E90022F2
:10026E001202D640FBC2A0C2A1C2A200008F800023
:0C027E00000000D2A200000000C2A2227A
:1002A4001202D640FBD2A0C2A1C2A28F80000000DD
:0A02B40000D2A200000000C2A22246
:10024B0012028A7F3812026E12028A7F0C12026E21
:10025B0012028A7F0612026E1F7E0012028E7F012F
:03026B0002026E1E
:07030F00EF4480FF02026EC3
:1002BE00E4FFE4FE0EBE33FCB2A70FBFB4F47F2CF6
:0702CE007E0112028EC2A79F
:0102D5002206
:100196007580FF75A0FF7F0A7E0012028E12024B49
:1001A6007BFF7A0279FEE4FD1202207F387E001280
:1001B60002162094101202BE7F0A7E0012028E30B2
:1001C60094FD1201477B007A0079087D40120220D7
:0901D6007F647E0012028E80D9C4
:030000000200BB40
:0C00BB00787FE4F6D8FD75812402010274
:10000300BB010CE58229F582E5833AF583E02250B2
:1000130006E92582F8E622BBFE06E92582F8E222FC
:0D002300E58229F582E5833AF583E4932216
:10003000C2D5EC30E709B2D5E4C39DFDE49CFCEEEB
:1000400030E715B2D5E4C39FFFE49EFE120066C3FD
:10005000E49DFDE49CFC800312006630D507C3E4F8
:060060009FFFE49EFE225A
:1001DF00AC19AD1AAE1BAF1C780FEFA2E2EC20E604
:1001EF0001B35D5E5FF47004FCFDFEFFEF13FFEEE5
:1001FF0013FEED13FDEC13FCD8E08C198D1A8E1B3A
:10020F008F1CEE547FFE228E198F1AE4F51BF51CFE
:01021F0022BC
:1000C700020196E493A3F8E493A34003F68001F2B8
:1000D70008DFF48029E493A3F85407240CC8C3333A
:1000E700C4540F4420C8834004F456800146F6DF09
:1000F700E4800B01020408102040809002EAE47EAD
:10010700019360BCA3FF543F30E509541FFEE493FD
:10011700A360010ECF54C025E060A840B8E493A3C4
:10012700FAE493A3F8E493A3C8C582C8CAC583CAEF
:10013700F0A3C8C582C8CAC583CADFE9DEE780BEA7
:0102FD000000
:10006600BC000BBE0029EF8DF084FFADF022E4CC7E
:10007600F875F008EF2FFFEE33FEEC33FCEE9DEC47
:10008600984005FCEE9DFE0FD5F0E9E4CEFD22ED8D
:10009600F8F5F0EE8420D21CFEADF075F008EF2FD7
:1000A600FFED33FD4007985006D5F0F222C398FDC8
:0500B6000FD5F0EA2265
:00000001FF
