:06000300010800010900E4
:10010C007580FE75A0FE758911758CC5758A68752C
:0E011C008D3C758BB075A88AD28CD28E80FE79
:03000B000200AA46
:1000AA00C0E0C0D075D000C000C007758CC5758A85
:1000BA00680508E508B40A10750800AF807801EFF2
:1000CA0008800123D8FDF580D007D000D0D0D0E039
:0100DA0032F3
:03001B000200DB05
:1000DB00C0E0C0D075D000C000C007758D3C758BDB
:1000EB00B00509E509B40A10750900AFA07801EF56
:1000FB0008800123D8FDF5A0D007D000D0D0D0E0E8
:01010B0032C1
:0300000002001EDD
:0C001E00787FE4F6D8FD758109020065CA
:10002A0002010CE493A3F8E493A34003F68001F2DF
:10003A0008DFF48029E493A3F85407240CC8C333D7
:10004A00C4540F4420C8834004F456800146F6DFA6
:10005A00E4800B0102040810204080900003E47E33
:10006A00019360BCA3FF543F30E509541FFEE4939B
:10007A00A360010ECF54C025E060A840B8E493A362
:10008A00FAE493A3F8E493A3C8C582C8CAC583CA8D
:10009A00F0A3C8C582C8CAC583CADFE9DEE780BE45
:0100090000F6
:00000001FF
